:100000000C9486000C9490000C9490000C9490003A
:100010000C9490000C9490000C9490000C94900020
:100020000C9490000C9490000C9490000C94900010
:100030000C9490000C9490000C9490000C94900000
:100040000C9490000C9490000C9490000C949000F0
:100050000C9490000C9490000C9490000C949000E0
:100060000C9490000C949000F0000F010F010F0110
:100070000F010F010F010F010F010F010F010F0100
:100080000F010F010F010F010F010F010F010F01F0
:100090000F010F010F010F010F010F010F010F01E0
:1000A0000F010F010F010F010F010F010F010F01D0
:1000B0000F010F010F010F010F010F010F010F01C0
:1000C0000F010F010F01E9000F010F010F010F01D7
:1000D0000F010F010F010F010F010F010F010F01A0
:1000E0000F010F010F010F01F4000F01FC000001CF
:1000F000040108010C010F010F010F010F010F0195
:100100000F010F010F010F010F01ED0011241FBEA0
:10011000CFEFD4E0DEBFCDBF0E9492000C94180157
:100120000C940000CF93DF93CDB7DEB72E970FB6B8
:10013000F894DEBF0FBECDBF8FEF8AB984B1806166
:1001400084B980E48CBDCE0101960E94B0000DB44C
:1001500007FEFDCF6EB5CE0101960E94DA00F7CF03
:10016000FC018BE4808381E081838CE482831382B1
:1001700088E184838DE0858382E38683178284E629
:1001800090E09187808788EC90E0938782878CE26B
:1001900091E09587848708950DB407FEFDCF0895FB
:1001A0006EBD0E94CC008EB508950DB407FEFDCF44
:1001B0008EB50895CF93DF93462F50E0FA01E15AB0
:1001C000F109E235F10558F5EC01EC5CFF4F0C94B8
:1001D000120160E60E94D00022C00E94D5001FC01C
:1001E00068810E94D0001BC069810E94D0006A8192
:1001F000CE010E94D00013C06B810E94D0000FC0BE
:100200006C810E94D0000BC06D810E94D00007C09D
:100210006E810E94D00003C06F810E94D000DF91E8
:10022000CF910895EE0FFF1F0590F491E02D0994F2
:04023000F894FFCF70
:00000001FF
