:100000000C9435000C9452000C9452000C94520045
:100010000C9452000C9452000C9452000C94520018
:100020000C9452000C9452000C9452000C94A102B7
:100030000C9452000C9452000C9452000C945200F8
:100040000C9452000C9452000C9452000C945200E8
:100050000C9452000C9452000C9452000C945200D8
:100060000C9452000C945200C30211241FBECFEF17
:10007000D4E0DEBFCDBF21E0A0E0B1E001C01D9221
:10008000AB31B207E1F710E0C5E3D0E004C021973F
:10009000FE010E94E803C433D107C9F70E94B002F1
:1000A0000C94FD030C940000FC011186128613864B
:1000B0001486158616861786108A08951F93CF9387
:1000C000DF931F92CDB7DEB7162FCE0101960E94A7
:1000D0008002812F0E947902182FCE0101960E9482
:1000E0008102812F0F90DF91CF911F910895FF9290
:1000F0000F931F93CF93DF9300D0CDB7DEB78C0162
:10010000F62ECE0102960E9480020E946B02CE0162
:1001100002960E9481026F2DC8010E945E0060E07D
:10012000C8010E945E00182FCE0101960E94800235
:100130000E946F02CE0101960E948102812F0F90D2
:100140000F90DF91CF911F910F91FF900895EF9243
:10015000FF921F93CF93DF9300D0CDB7DEB77C0122
:10016000162FCE0102960E9480020E946B02CE01E1
:1001700002960E948102612FC7010E945E0060E02A
:10018000C7010E945E00182F60E0C7010E945E0058
:10019000F82ECE0101960E9480020E946F02CE01CD
:1001A00001960E948102812F90E0982F88278F2945
:1001B0000F900F90DF91CF911F91FF90EF900895D6
:1001C0004F925F926F927F928F929F92AF92BF9267
:1001D000CF92DF92EF92FF92CF93DF93EC016DEF1E
:1001E0000E94A7006C01E12CF12C8E889F88A88CBE
:1001F000B98C2CE2921A21E0A20AB1080B2EBEE0C3
:10020000CC0CDD1CEE1CFF1CBA95D1F7B02D8C81F7
:100210009D81092E000CAA0BBB0B072E74E1880FE1
:10022000991FAA1FBB1F7A95D1F7702DC81AD90A3A
:10023000EA0AFB0AAE81BF81A50194010E94E00396
:10024000C61AD70AE80AF90A30E4D30EE11CF11CF9
:100250000B2EBFE0F594E794D794C794BA95D1F7E5
:10026000B02DA8850A2E000CBB0BA50194010E949D
:10027000E0032B013C01032E3AE0759467945794F8
:1002800047943A95D1F7302DAB81B0E00E94D50369
:10029000DC01CB01072E7BE0B595A7959795879557
:1002A0007A95D1F7702DBC01CD0170588F4F9F4FBB
:1002B000A30192010E94C503DC01CB01072E7AE065
:1002C000B595A795979587957A95D1F7702D9C014F
:1002D000AD01405E5F4FA981BA810E94E003DC015D
:1002E000CB01905EAF4FBF4FBC01CD01052E5EE04C
:1002F00095958795779567955A95D1F7502DA701D4
:1003000096010E94C5036B017C01052E5FE0959567
:100310008795779567955A95D1F7502D9B01AC013C
:100320000E94C5039B01AC01689416F8559547954A
:10033000379527951694D1F7A881B0E00E94D50390
:10034000DC01CB01689413F8B595A795979587952F
:100350001694D1F7A7019601281B390B4A0B5B0BAA
:10036000DA01C9011AF480E090E0DC0181309105E6
:10037000A10539E1B30724F080E090E0A0E0B9E105
:10038000BC01CD01052E5CE0959587957795679525
:100390005A95D1F7502D0E94CC0220E030E040E881
:1003A0005AE30E9407036D877E878F87988BDF91C2
:1003B000CF91FF90EF90DF90CF90BF90AF909F9044
:1003C0008F907F906F905F904F9008950E94E00013
:1003D00008950E94A70098278927982708950E94CA
:1003E000E90108950F931F93CF93DF93EC0161EA26
:1003F0000E947700888361EECE010E94EF019A830C
:10040000898363EECE010E9477008B8364EECE0178
:100410000E94770090E1899F8001112465EECE0152
:100420000E9477008F70082B1D830C8366EECE012F
:100430000E94770090E1899F8001112465EECE0132
:100440000E94770090E0959587959595879595956D
:10045000879595958795802B912B9F838E8367EE4B
:10046000CE010E9477008887DF91CF911F910F9175
:1004700008950F931F93CF93DF931F92CDB7DEB7ED
:100480008C01CE0101960E9480020E945D02CE0185
:1004900001960E94810260EDC8010E9477008036BB
:1004A00029F4C8010E94F20181E001C080E00F90B0
:1004B000DF91CF911F910F9108958FEF8AB91BB8EB
:1004C0008CE284B985B1846085B980E58CBD8DB539
:1004D00081608DBD089585B18B7F85B9089585B103
:1004E000846085B908958DB58095881F8827881FF9
:1004F00008958EBD0E9473028111FCCF8EB50895C0
:1005000008950895019739F46F3F7F4F21F481E0FA
:1005100091E00E9454000895E1E8F0E08081886055
:1005200080838BE197EB9093890080938800AFE6FE
:10053000B0E08C9182608C93808185608083789418
:1005400008951F920F920FB60F9211248F9381E09E
:10055000809300018F910F900FBE0F901F90189500
:100560008FEF8AB981E091E00E9439020E948C02EB
:10057000809100018823E1F381E091E00E94E6018F
:1005800010920001F5CF6FEF7FEF81E090E00E94C5
:1005900082020895E89409C097FB3EF490958095F7
:1005A000709561957F4F8F4F9F4F9923A9F0F92F39
:1005B00096E9BB279395F695879577956795B795B7
:1005C000F111F8CFFAF4BB0F11F460FF1BC06F5F9D
:1005D0007F4F8F4F9F4F16C0882311F096E911C0AF
:1005E000772321F09EE8872F762F05C0662371F0D0
:1005F00096E8862F70E060E02AF09A95660F771FE4
:10060000881FDAF7880F9695879597F908950E94C5
:100610001A030C948B030E947D0338F00E9484031C
:1006200020F0952311F00C9474030C947A03112498
:100630000C94BF030E949C0370F3959FC1F3950F28
:1006400050E0551F629FF001729FBB27F00DB11D56
:10065000639FAA27F00DB11DAA1F649F6627B00DE6
:10066000A11D661F829F2227B00DA11D621F739FCF
:10067000B00DA11D621F839FA00D611D221F749FDD
:100680003327A00D611D231F849F600D211D822F24
:10069000762F6A2F11249F5750409AF0F1F088234B
:1006A0004AF0EE0FFF1FBB1F661F771F881F915078
:1006B0005040A9F79E3F510580F00C9474030C94B0
:1006C000BF035F3FE4F3983ED4F386957795679533
:1006D000B795F795E7959F5FC1F7FE2B880F911DA2
:1006E0009695879597F9089597F99F6780E870E048
:1006F00060E008959FEF80EC089500240A94161698
:10070000170618060906089500240A9412161306FF
:10071000140605060895092E0394000C11F488238D
:1007200052F0BB0F40F4BF2B11F460FF04C06F5FA9
:100730007F4F8F4F9F4F089557FD9058440F551F7F
:1007400059F05F3F71F04795880F97FB991F61F053
:100750009F3F79F087950895121613061406551FCA
:10076000F2CF4695F1DF08C0161617061806991F36
:10077000F1CF86957105610508940895E894BB272B
:1007800066277727CB0197F90895DB018F939F9315
:100790000E94D503BF91AF91A29F800D911DA39F91
:1007A000900DB29F900D112408950E94EE03A59F15
:1007B000900DB49F900DA49F800D911D112408955C
:1007C000B7FF0C94D5030E94D503821B930B0895A9
:1007D000EE0FFF1F0590F491E02D0994A29FB00148
:1007E000B39FC001A39F700D811D1124911DB29F65
:0E07F000700D811D1124911D0895F894FFCF06
:00000001FF
